:100000000C9469010C949A010C949A010C949A0135
:100010000C949A010C949A010C949A010C949A01F4
:100020000C949A010C949A010C949A010C949A01E4
:100030000C949A010C949A010C949A010C949A01D4
:100040000C949A010C949A010C949A010C949A01C4
:100050000C949A010C949A010C949A010C94C50783
:100060000C949A010C949A010C949A010C949A01A4
:100070000C949A010C949A010C949A010C949A0194
:100080000C949A010C949A010C949A010C949A0184
:100090000C9439080C940F080C949A010C946F0876
:1000A0000C949A010C949A010C949A010C949A0164
:1000B0000C949A010C949A010C949A010C949A0154
:1000C0000C949A010C949A010C949A010C949A0144
:1000D0000C949A010C949A010C949A010C949A0134
:1000E0000C949A010C94B00C0C943F0D0C94BA0132
:1000F0000C94A00C0C94AA0C0C9476050C9453054B
:100100000C94ED010C94AC030C94FA010C94CC010A
:100110000C947D050C94FE0C0C94F6020C94C80112
:100120000C94F40C0C94FF010C94CE0C0C94FB0179
:100130000C94E00C0C94170D0C94D70C0C94C70283
:100140000C9454050C945F030C94210D0C940D0D2C
:100150000C94EA0C0C94E3010C94CF010C94F5017F
:100160000C9493090C9427030C9463050C94DF0101
:100170000C9405030C94F1010C94D5010C94E70147
:100180000C94350D0C94D9010C9419030C94C001F6
:100190000C94C9020C94C4010C94C8020C942B0D4D
:1001A0000C94C40C0C94AA050C94BA0C0C94D905AC
:1001B00000002100240027002A002D003000330019
:1001C00001010000040107010A01000022002500CE
:1001D00028002B002E003100340002010000050130
:1001E00008010B01000020002300260029002C003C
:1001F0002F0032000001000003010601090105057E
:100200000505070508080808020202020A0A08088C
:1002100004040404010101010101010103030303BA
:1002200003030303040707070C0C0C0C0C0C0C0C49
:100230000202020206060606060606060B0B0B0B5A
:100240000B0B0B0B0102102020080810204010207F
:10025000408002010201080402010102040810208A
:100260004080804020100804020180040201804088
:1002700020100804020108040201010204081020F1
:100280004080010204081020408000000A0B02098F
:100290000C0D0E0807030401000000000000000020
:1002A000000000000000000000000000000000004E
:1002B000000000000000121110000000000000000B
:1002C000000000000000000000000000000000002E
:1002D000930911241FBECFEFD1E2DEBFCDBF00E0F6
:1002E0000CBF13E0A0E0B2E0EAE0F0E200E00BBFF8
:1002F00002C007900D92A431B107D9F724E0A4E120
:10030000B3E001C01D92AB38B207E1F711E0C9E6D6
:10031000D1E000E006C021970109802FFE010E9474
:10032000FB0FC836D10780E00807A9F70E94D4095F
:100330000C9403100C9400008150823108F05AC0D4
:10034000E82FF0E08827E855FE4F8F4F0C94FB0F05
:10035000C801CC01BA01C001C401FA01CF01D50125
:10036000D901DF01E301E701ED01F101FA01F50136
:10037000FB01FF01809180008F77809380000895BA
:10038000809180008F7DF9CF80918000877FF5CFAD
:1003900084B58F7784BD089584B58F7DFBCF809120
:1003A000B0008F778093B00008958091B0008F7D6A
:1003B000F9CF809190008F7780939000089580917D
:1003C00090008F7DF9CF80919000877FF5CF80914D
:1003D000A0008F778093A00008958091A0008F7D6A
:1003E000F9CF8091A000877FF5CF809120018F7792
:1003F000809320010895809120018F7DF9CF809115
:100400002001877FF5CFCF93DF93282F30E0F901CC
:10041000E657FD4F8491F901EC5BFD4FD491F90152
:10042000E250FE4FC491CC23A1F081110E949C01A7
:10043000EC2FF0E0EE0FFF1FEC51FE4FA591B491B1
:10044000EC91ED2381E090E009F480E0DF91CF9121
:10045000089580E090E0FACF1F93CF93DF93282F89
:1004600030E0F901E657FD4F8491F901EC5BFD4F57
:10047000D491F901E250FE4FC491CC23A9F0162F7C
:1004800081110E949C01EC2FF0E0EE0FFF1FE6535C
:10049000FE4FA591B4918FB7F894EC91111108C05B
:1004A000D095DE23DC938FBFDF91CF911F9108950C
:1004B000DE2BF8CFCF93DF9390E0FC01EC5BFD4F98
:1004C000249182509E4FFC0184918823D1F090E0CA
:1004D000880F991FFC01E055FE4FA591B491FC01D6
:1004E000E653FE4FC591D49161110EC09FB7F894A9
:1004F0008C91E22FE0958E238C932881E223E88370
:100500009FBFDF91CF9108958FB7F894EC91E22BC4
:10051000EC938FBFF6CF90917B00977F90937B00F9
:100520008653806480937C0080917A0080648093FD
:100530007A0080917A0086FDFCCF809178009091BE
:10054000790008953FB7F8948091690390916A0308
:10055000A0916B03B0916C0326B5A89B05C02F3FFB
:1005600019F00196A11DB11D3FBFBA2FA92F982FD9
:100570008827BC01CD01620F711D811D911D42E0D4
:10058000660F771F881F991F4A95D1F70895089520
:100590000895AF92BF92CF92DF92EF92FF920F93A6
:1005A0001F93CF93DF936C017B018B01040F151F09
:1005B000EB015E01AE18BF08C017D10759F0699171
:1005C000D601ED91FC910190F081E02DC6011995C5
:1005D000892B79F7C501DF91CF911F910F91FF9082
:1005E000EF90DF90CF90BF90AF900895FC01538DB6
:1005F000448D252F30E0842F90E0821B930B5417FD
:1006000010F0CF96089501970895FC01918D828D89
:10061000981761F0A28DAE0FBF2FB11D5D968C9122
:10062000928D9F5F9F73928F90E008958FEF9FEF61
:100630000895FC01918D828D981731F0828DE80F1D
:10064000F11D858D90E008958FEF9FEF0895FC01D7
:10065000918D228D892F90E0805C9F4F821B9109A4
:100660008F73992708958FED93E00E94270321E06F
:10067000892B09F420E0822F0895FC01A48DA80F96
:10068000B92FB11DA35ABF4F2C91848D90E00196D4
:100690008F739927848FA689B7892C93A089B189F4
:1006A0008C91837080648C93938D848D981306C095
:1006B0000288F389E02D80818F7D80830895EF92F9
:1006C000FF920F931F93CF93DF93EC0181E0888F0C
:1006D0009B8D8C8D98131AC0E889F989808185FFDC
:1006E00015C09FB7F894EE89FF896083E889F9897E
:1006F00080818370806480839FBF81E090E0DF9180
:10070000CF911F910F91FF90EF900895F62E0B8DD2
:1007100010E00F5F1F4F0F731127E02E8C8D8E118D
:100720000CC00FB607FCFACFE889F989808185FFF4
:10073000F5CFCE010E943D03F1CFEB8DEC0FFD2FE5
:10074000F11DE35AFF4FF0829FB7F8940B8FEA89AF
:10075000FB8980818062CFCFCF93DF93EC01888DBE
:100760008823B9F0AA89BB89E889F9898C9185FD2C
:1007700003C0808186FD0DC00FB607FCF7CF8C91BA
:1007800085FFF2CF808185FFEDCFCE010E943D0332
:10079000E9CFDF91CF91089580E090E0892B49F077
:1007A00080E090E0892B29F00E94000081110E94D6
:1007B000000080E090E0892B29F00E943303811132
:1007C0000E94000080E090E0892B49F080E090E0FA
:1007D000892B29F00E94000081110E94000080E016
:1007E00090E0892B49F080E090E0892B29F00E946D
:1007F000000081110C940000089520913503260F0C
:100800003327331F21323105ECF42091B503FC016D
:1008100090E080E0243069F082E00895A0913503F3
:100820002191AC014B5E5C4FA40FB52FB11D2C93F1
:100830000196861798F380913503680F609335030E
:1008400080E0089581E008951092B50381E08093DF
:10085000B40310928F0361E084E10E942C0261E0F6
:1008600085E10E942C02E9EBF0E080818E7F80839D
:1008700080818D7F808388E48093B80085E48093B5
:10088000BC000895CF93DF9391E0909314038823E5
:10089000B9F0C091B800D091BA008091BC008A7BB9
:1008A0008093BC0060E084E10E942C0260E085E15E
:1008B0000E942C020E942404D093BA00C093B80076
:1008C000DF91CF9108958F929F92AF92BF92CF9276
:1008D000DF92EF92FF920F931F93CF93DF93D0910C
:1008E000DE03D13208F0D7C0182FC091DD030E947B
:1008F000A2026B017C018091B50381116BC082E083
:100900008093B5031093B4038FEF8093B3031092D9
:10091000B203D093B103ADEBB3E0E1E9F3E080E0E3
:10092000D81391C01092900380919003CC0FC82BE4
:10093000C093900380918F03813009F088C010929A
:100940008F030E94A2026B017C018091900380932F
:10095000BB008091B7039091B803A091B903B09107
:10096000BA03892B8A2B8B2BA1F00E94A202009143
:10097000B7031091B8032091B9033091BA036C19F1
:100980007D098E099F09061717072807390708F4FC
:1009900042C08091BC0083FDD8CF85EC8093BC0021
:1009A0000E94A2026B017C018091B503823009F4A0
:1009B00050C08091B3038F3F09F46FC08091B3039F
:1009C000803209F46CC08091B303803309F469C0AC
:1009D00084E026C08091B7039091B803A091B90339
:1009E000B091BA03892B8A2B8B2B09F484CF0E94F8
:1009F000A2028090B7039090B803A090B903B09082
:100A0000BA036C197D098E099F0986169706A806F8
:100A1000B90608F070CF8091B6030E94420485E0C9
:100A20001092BC031092DE031092BB03DF91CF91B2
:100A30001F910F91FF90EF90DF90CF90BF90AF90FC
:100A40009F908F9008959D9191938F5F69CF85EED0
:100A5000A5CF8091B7039091B803A091B903B0914D
:100A6000BA03892B8A2B8B2B09F49ECF0E94A202FA
:100A70000091B7031091B8032091B9033091BA03E4
:100A80006C197D098E099F09061717072807390772
:100A900008F08ACFC0CF81E0C3CF80E0C1CF82E031
:100AA000BFCF83E0BDCF0895E0916E0380916D03C9
:100AB000E81730F4F0E0E159FC4F808190E00895B0
:100AC0008FEF9FEF089590916E0380916D032FEF4C
:100AD0003FEF981748F4E92FF0E0E159FC4F2081EF
:100AE00030E09F5F90936E03C901089580916D037C
:100AF00090916E03891B990B0895CF92DF92EF922C
:100B0000FF920F931F93CF93DF937C01CB018A0158
:100B10002091BB03222389F0EB016B01C40ED51E8B
:100B2000CC15DD0569F06991D701ED91FC9101903B
:100B3000F081E02DC7011995F3CF642F0E94FD03CA
:100B4000C801DF91CF911F910F91FF90EF90DF903F
:100B5000CF900895CF93DF931F92CDB7DEB769830F
:100B60002091BB032223F9F02091DE03203258F0BC
:100B700021E030E0FC013383228390E080E00F909D
:100B8000DF91CF9108958091BC03E82FF0E0E3540A
:100B9000FC4F998190838F5F8093BC038093DE0329
:100BA00081E090E0ECCF61E0CE0101960E94FD0370
:100BB000F7CF90E080E00895FC0101900020E9F774
:100BC0003197AF01481B590BBC018FED93E00C949A
:100BD000C9028F929F92AF92BF920F931F93CF93B0
:100BE000DF93CDB7DEB7A1970FB6F894DEBF0FBE87
:100BF000CDBF19A2423008F44AE08E010F5D1F4FAD
:100C0000842E912CB12CA12CA50194010E94D90F06
:100C1000E62FB901CA01EA30F4F4E05DD801EE93A1
:100C20008D01232B242B252B79F790E080E0109762
:100C300019F0CD010E94DC05A1960FB6F894DEBF35
:100C40000FBECDBFDF91CF911F910F91BF90AF909D
:100C50009F908F900895E95CE1CFCF93DF930E943E
:100C6000DC05EC0184E292E00E94DC058C0F9D1F04
:100C7000DF91CF9108950C94DC05CF92DF92EF9233
:100C8000FF92CF93DF936C01990FEE08FF08F7FEF8
:100C900019C06DE28FED93E00E945F03EC016627BF
:100CA0007727CB016C197D098E099F094AE00E94C4
:100CB000E9058C0F9D1FDF91CF91FF90EF90DF90A2
:100CC000CF9008954AE0C701B601DF91CF91FF9020
:100CD000EF90DF90CF900C94E9058F929F92AF92A6
:100CE000BF92CF92DF92EF92FF920F931F93CF9319
:100CF000DF931F921F92CDB7DEB7A0918804B09109
:100D0000890490918A0421E02093BB039093DD0332
:100D10001092BC031092DE03ED91FC9111970190AB
:100D2000F081E02D682FCD01199581E00E946304C8
:100D3000182F8111DCC000918A040E94A2026B016D
:100D40007C018091B503811164C081E08093B5037B
:100D50008093B4039FEF9093B3031092B2038093F8
:100D6000B1038093900380919003000F082B0093B0
:100D7000900380918F03813009F093C010928F030C
:100D80000E94A2026B017C01809190038093BB00C2
:100D90008091B7039091B803A091B903B091BA03C1
:100DA000892B8A2B8B2BA1F00E94A2028090B70383
:100DB0009090B803A090B903B090BA036C197D0964
:100DC0008E099F0986169706A806B90608F442C040
:100DD0008091BC0083FDD8CF85EC8093BC000E943D
:100DE000A2026B017C018091B503813009F45BC0E4
:100DF0008091B203823008F078C08091B203A1E9FB
:100E0000B3E0EFE6F3E0181749F19D9191931F5F6E
:100E1000FACF8091B7039091B803A091B903B09134
:100E2000BA03892B8A2B8B2B09F48BCF0E94A20249
:100E30008090B7039090B803A090B903B090BA0324
:100E40006C197D098E099F0986169706A806B906B2
:100E500008F077CF8091B6030E94420410926E038F
:100E600010936D038E010F5F1F4F80918804909146
:100E70008904DC01ED91FC910084F185E02D199548
:100E8000892BA9F18091880490918904DC01ED916E
:100E9000FC910284F385E02D1995F80181938F016F
:100EA000E4CF85EE9ACF8091B7039091B803A091DB
:100EB000B903B091BA03892B8A2B8B2B09F493CFFA
:100EC0000E94A2028090B7039090B803A090B9034B
:100ED000B090BA036C197D098E099F098616970692
:100EE000A806B90608F07FCFB5CF82E088CF898108
:100EF00090E0982F88272A81820F911D0F900F90E4
:100F0000DF91CF911F910F91FF90EF90DF90CF90E5
:100F1000BF90AF909F908F90089585ED8093BC0017
:100F20008091B7039091B803A091B903B091BA032F
:100F30000796A11DB11D23E0B695A79597958795B6
:100F40002A95D1F72091BC0024FD03C01092B5036F
:100F500008954091B7035091B8036091B90370911F
:100F6000BA03452B462B472B69F30097A105B10522
:100F700041F02AE22A95F1F700C00197A109B109D1
:100F8000E1CF8091B6030C9442041F920F920FB6EA
:100F90000F9211242F933F938F939F93AF93BF93FF
:100FA0008091650390916603A0916703B0916803F7
:100FB0003091640323E0230F2D3758F50196A11DCE
:100FC000B11D209364038093650390936603A093FF
:100FD0006703B09368038091690390916A03A091BD
:100FE0006B03B0916C030196A11DB11D8093690341
:100FF00090936A03A0936B03B0936C03BF91AF917E
:101000009F918F913F912F910F900FBE0F901F9046
:10101000189526E8230F0296A11DB11DD2CF1F926D
:101020000F920FB60F9211240BB60F922F933F938E
:101030004F935F936F937F938F939F93AF93BF93E0
:10104000EF93FF938FED93E00E943D03FF91EF91AB
:10105000BF91AF919F918F917F916F915F914F91D0
:101060003F912F910F900BBE0F900FBE0F901F90CE
:1010700018951F920F920FB60F9211240BB60F9274
:101080002F938F939F93EF93FF93E091EF03F09152
:10109000F0038081E091F503F091F60382FD1DC01D
:1010A00090818091F8038F5F8F732091F9038217ED
:1010B00041F0E091F803F0E0E152FC4F958F80930E
:1010C000F803FF91EF919F918F912F910F900BBE9D
:1010D0000F900FBE0F901F9018958081F2CF1F9236
:1010E0000F920FB60F9211240BB60F922F933F93CE
:1010F0004F935F936F937F938F939F93AF93BF9320
:10110000EF93FF938091B900887F803609F44DC03A
:1011100008F040C0883209F4A9C028F5803109F4EC
:101120009DC0C8F4882309F4FBC0883009F496C038
:10113000FF91EF91BF91AF919F918F917F916F91AF
:101140005F914F913F912F910F900BBE0F900FBE6B
:101150000F901F901895883109F488C0803241F7AC
:101160008093B30314C0803409F49DC040F48033ED
:10117000B9F38833E9F68093B30385ECB0C08035CA
:1011800009F485C0883509F496C0883489F60E9430
:101190008D07CECF883909F48CC038F5883729F00F
:1011A00050F4883611F0803719F683E08093B50348
:1011B0001092570357C0883809F47BC0803919F062
:1011C000803809F0B5CF80915703803208F071C0A4
:1011D000E091570381E08E0F809357038091BB000D
:1011E000F0E0E95CFC4F80833DC0803B39F0E0F4E7
:1011F000803A09F479C0883A09F09ACF84E0809364
:10120000B5031092360310923503E0915A03F09122
:101210005B0319958091350381110FC081E08093A4
:1012200035031092150309C0803C09F4A6CF883C11
:1012300009F4A3CF883B09F07BCFE091360381E02E
:101240008E0F80933603F0E0EB5EFC4F808180933D
:10125000BB00909136038091350329C080919003A3
:101260008093BB0085EC8093BC0062CF9091B20369
:101270008091B103981758F5E091B20381E08E0F89
:101280008093B203F0E0EF56FC4F8081E9CFE0910C
:10129000B20381E08E0F8093B2038091BB00F0E037
:1012A000EF56FC4F80839091B2038091B103981761
:1012B000C8F285E8D8CFE091B20381E08E0F809329
:1012C000B2038091BB00F0E0EF56FC4F8083809129
:1012D000B40381115CCF81E080938F0384EA809313
:1012E000BC001092B50324CF85EC8093BC00109213
:1012F000B50380915703803230F4E0915703F0E05A
:10130000E95CFC4F10826091570370E0E091580354
:10131000F091590387E393E019951092570308CF92
:101320001092B30334CFEFEDF3E01382128288EE14
:1013300093E0A0E0B0E084839583A683B78324E0A4
:1013400032E0318320832DEC30E0358724872CEC8C
:1013500030E03787268728EC30E0318B208B29EC72
:1013600030E0338B228B2AEC30E0358B248B2EEC53
:1013700030E0378B268B118E128E138E148EECE795
:10138000F4E01382128284839583A683B78386E177
:1013900092E091838083A8E8B4E01196FC93EE93E9
:1013A00089E112968C930895789484B5826084BD07
:1013B00084B5816084BD85B5826085BD85B5816059
:1013C00085BD80916E00816080936E0010928100D7
:1013D0008091810082608093810080918100816092
:1013E0008093810080918000816080938000809153
:1013F000B10084608093B1008091B00081608093DF
:10140000B000809191008260809391008091910062
:101410008160809391008091900081608093900022
:101420008091A10082608093A1008091A1008160E1
:101430008093A1008091A00081608093A0008091A2
:10144000210182608093210180912101816080933C
:1014500021018091200181608093200180917A0098
:10146000846080937A0080917A00826080937A0011
:1014700080917A00816080937A0080917A00806800
:1014800080937A001092C10060E086E10E945A02C7
:1014900060E087E10E945A0260E086E30E945A02FF
:1014A00060E088E10E945A0260E088E30E945A02EC
:1014B00061E08DE20E945A0261E08BE10E945A02D3
:1014C00061E08AE10E945A0261E089E10E945A02C9
:1014D000E091EF03F091F00382E08083E091EB0371
:1014E000F091EC031082E091ED03F091EE038FECAC
:1014F00080831092F703E091F303F091F40386E008
:101500008083E091F103F091F20380818061808318
:10151000E091F103F091F203808188608083E09193
:10152000F103F091F203808180688083E091F10300
:10153000F091F20380818F7D808377247394C7ECD0
:10154000D2E008EC12E06624639410926E031092CD
:101550006D031092BC031092DE030E942404D0930A
:101560005B03C0935A03109359030093580380916F
:101570008A046092BB038093DD0381E00E946304D0
:10158000882351F123E0721639F10E94A2026B0107
:101590007C0184EF882E99249394A12CB12C0E9475
:1015A000A2026C197D098E099F09683E734081056E
:1015B0009105A8F381E0881A9108A108B108E8EE26
:1015C000CE0EE3E0DE1EE11CF11C81149104A104A7
:1015D000B10429F77394B9CF61E08DE20E945A02F9
:1015E00060E08DE20E942C0260E08BE10E942C0200
:1015F00060E08AE10E942C0260E089E10E942C02F6
:10160000C4E6D0E086E10E9403028C0188E10E94DA
:1016100003024C0188E30E948B023C0186E30E9496
:101620008B025C0187E30E948B022C0189E30E94FC
:101630008B021C010130110509F026C261E08BE12B
:101640000E942C0287E10E94030261E0019709F0E9
:1016500053C18DE20E945A0261E08DE20E942C0289
:1016600022E3A216B104BCF061E08AE10E942C02E0
:101670002FB7F8948091650390916603A09167035A
:10168000B09168032FBF8093600390936103A09390
:101690006203B09363032FB7F89480916503909130
:1016A0006603A0916703B09168032FBF4091600368
:1016B000509161036091620370916303841B950BE9
:1016C000A60BB70B8C3B9240A105B10520F060E062
:1016D0008AE10E942C0261E08114910409F060E02B
:1016E00089E10E942C028BE00E946D067C018DE056
:1016F0000E946D066C018FE00E946D068C012FB771
:10170000F8948091650390916603A0916703B0916E
:1017100068032FBF40915C0350915D0360915E03AD
:1017200070915F03841B950BA60BB70B803991401A
:10173000A105B10508F4FEC184E292E00E94DC0537
:101740008CE792E00E942D0681EA92E00E943B061F
:1017500087E292E0892811F086E392E00E942D064C
:1017600089EA92E00E943B0685E6681681E07806E9
:101770000CF499C18BE392E00E942D068FEA92E06F
:101780000E943B0685E492E0E0E5AE16B10414F455
:1017900082E592E00E942D0687EB92E00E943B06D4
:1017A000B201550C880B990B0E94BC0E20E030E46E
:1017B0004CE955E40E946C0F20E030EC4FE754E414
:1017C0000E94120E20E030E040E251E40E94120E2E
:1017D0000E94840ECB010E943D068EEB92E00E9497
:1017E0002D0681EC92E00E943B06B101330C880B80
:1017F000990B0E94BC0E20E030E040E85AE30E94C2
:101800006C0F21ED32E24BE15EE30E94A00D2CE86B
:1018100037E640ED5BE30E94120E20E030E040E846
:101820005FE30E94A10D0E94840ECB010E943D0641
:101830008CEC92E00E942D068EEC92E00E943B061A
:10184000B70190E080E04AE00E94E90586ED92E071
:101850000E943B0686E392E0FDE0EF16F10468F09B
:1018600089E592E023E3E216F10438F085E6E81614
:10187000F10408F01BC182E792E00E942D0680EE81
:1018800092E00E943B06B12CA12C4AE0C501B601B2
:101890000E94E90586ED92E00E943B0686E392E015
:1018A000EDE0CE16D10408F406C1C501B6010E94D0
:1018B000BA0E6B017C012AE939E94DE052E40E943D
:1018C0000D0E18160CF0F5C02AE939E94DE552E481
:1018D000C701B6010E940D0E18165CF426E636E626
:1018E00046E153E4C701B6010E940D0E18160CF430
:1018F00024C182E792E0DFC08DE20E945A02E7EB4A
:10190000F2E08491EFEFE80FE23108F0B8C0F0E0C8
:101910008827E257F34F8F4F0C94FB0FA00CAA0CB3
:10192000B00CBA0CC40C3F0DCE0CD70CE00CEA0C7A
:10193000F40CFE0C0D0D170D3F0D210D2B0D350D6B
:1019400084B5806884BDF4E6F7BD60E08AE10E945A
:101950002C02A1CE84B5806284BD24E628BDF5CFDB
:1019600080918000806880938000D0938900C0932C
:101970008800EBCF80918000806280938000D093BC
:101980008B00C0938A00E1CF8091800088608093B3
:101990008000D0938D00C0938C00D7CF8091B00091
:1019A00080688093B00084E68093B300CECF8091AE
:1019B000B00080628093B000E4E6E093B400C5CF4D
:1019C00080919000806880939000D0939900C0939C
:1019D0009800BBCF80919000806280939000D0935C
:1019E0009B00C0939A00B1CF809190008860809353
:1019F0009000D0939D00C0939C00A7CF8091A00041
:101A000080688093A0008091A0008F7B8093A000CD
:101A1000D093A900C093A80098CF8091A0008062C5
:101A20008093A000D093AB00C093AA008ECF80918A
:101A3000A00088608093A000D093AD00C093AC005C
:101A400084CF80912001806880932001D093290168
:101A5000C09328017ACF8091200180628093200179
:101A6000D0932B01C0932A0170CF80912001886010
:101A700080932001D0932D01C0932C0166CF60E0AC
:101A80008DE20E942C0261CF60E08BE10E942C026B
:101A900060E08AE10E942C0261E08DE20E945A021D
:101AA00060E08DE216CE86E392E066CE82E692E0BA
:101AB000E4CE89E592E00E942D0688EE92E00E9435
:101AC0003B06B80190E080E04AE00E94E90586ED1F
:101AD00092E00E943B0686E392E00733110588F00E
:101AE00089E592E00B39110560F082E792E00F3F43
:101AF000110538F08DE692E00336114010F082E6D1
:101B000092E00E942D068FEE92E00E942D062FB7E4
:101B1000F8948091650390916603A0916703B0915A
:101B200068032FBF80935C0390935D03A0935E03D3
:101B3000B0935F030E94CC0365CD82E692E0BBCFF9
:101B40005058BB27AA270E94B80D0C94320F0E9450
:101B5000240F38F00E942B0F20F039F49F3F19F426
:101B600026F40C94210F0EF4E095E7FB0C941B0F68
:101B7000E92F0E94430F58F3BA17620773078407CF
:101B8000950720F079F4A6F50C94650F0EF4E09516
:101B90000B2EBA2FA02D0B01B90190010C01CA0127
:101BA000A0011124FF27591B99F0593F50F4503ED2
:101BB00068F11A16F040A22F232F342F4427585FC4
:101BC000F3CF469537952795A795F0405395C9F7DC
:101BD0007EF41F16BA0B620B730B840BBAF0915094
:101BE000A1F0FF0FBB1F661F771F881FC2F70EC033
:101BF000BA0F621F731F841F48F487957795679506
:101C0000B795F7959E3F08F0B0CF9395880F08F0F1
:101C10009927EE0F9795879508950E94F70E08F47F
:101C200081E008950E94260E0C94320F0E942B0F23
:101C300058F00E94240F40F029F45F3F29F00C94E3
:101C40001B0F51110C94660F0C94210F0E94430F2F
:101C500068F39923B1F3552391F3951B550BBB27DB
:101C6000AA2762177307840738F09F5F5F4F220F20
:101C7000331F441FAA1FA9F335D00E2E3AF0E0E817
:101C800032D091505040E695001CCAF72BD0FE2F61
:101C900029D0660F771F881FBB1F261737074807F5
:101CA000AB07B0E809F0BB0B802DBF01FF279358AD
:101CB0005F4F3AF09E3F510578F00C941B0F0C9447
:101CC000660F5F3FE4F3983ED4F38695779567956A
:101CD000B795F7959F5FC9F7880F911D96958795E2
:101CE00097F90895E1E0660F771F881FBB1F621701
:101CF00073078407BA0720F0621B730B840BBA0BBF
:101D0000EE1F88F7E09508950E948B0E6894B1113C
:101D10000C94660F08950E944B0F88F09F5798F01F
:101D2000B92F9927B751B0F0E1F0660F771F881FE0
:101D3000991F1AF0BA95C9F714C0B13091F00E94FA
:101D4000650FB1E008950C94650F672F782F8827F1
:101D5000B85F39F0B93FCCF3869577956795B39521
:101D6000D9F73EF490958095709561957F4F8F4F90
:101D70009F4F0895E89409C097FB3EF49095809595
:101D8000709561957F4F8F4F9F4F9923A9F0F92F41
:101D900096E9BB279395F695879577956795B795BF
:101DA000F111F8CFFAF4BB0F11F460FF1BC06F5FA5
:101DB0007F4F8F4F9F4F16C0882311F096E911C0B7
:101DC000772321F09EE8872F762F05C0662371F0D8
:101DD00096E8862F70E060E02AF09A95660F771FEC
:101DE000881FDAF7880F9695879597F90895990FC8
:101DF0000008550FAA0BE0E8FEEF16161706E807D5
:101E0000F907C0F012161306E407F50798F0621BF5
:101E1000730B840B950B39F40A2661F0232B242BCA
:101E2000252B21F408950A2609F4A140A6958FEFE9
:101E3000811D811D089597F99F6780E870E060E03B
:101E400008959FEF80EC089500240A941616170653
:101E500018060906089500240A941216130614069B
:101E600005060895092E0394000C11F4882352F0FE
:101E7000BB0F40F4BF2B11F460FF04C06F5F7F4FB6
:101E80008F4F9F4F089557FD9058440F551F59F09D
:101E90005F3F71F04795880F97FB991F61F09F3F57
:101EA00079F087950895121613061406551FF2CF80
:101EB0004695F1DF08C0161617061806991FF1CFD0
:101EC00086957105610508940895E894BB276627F7
:101ED0007727CB0197F908950E947F0F0C94320F5A
:101EE0000E94240F38F00E942B0F20F0952311F050
:101EF0000C941B0F0C94210F11240C94660F0E945C
:101F0000430F70F3959FC1F3950F50E0551F629FEB
:101F1000F001729FBB27F00DB11D639FAA27F00D42
:101F2000B11DAA1F649F6627B00DA11D661F829F69
:101F30002227B00DA11D621F739FB00DA11D621F4E
:101F4000839FA00D611D221F749F3327A00D611D6B
:101F5000231F849F600D211D822F762F6A2F11244D
:101F60009F5750409AF0F1F088234AF0EE0FFF1F80
:101F7000BB1F661F771F881F91505040A9F79E3FD7
:101F8000510580F00C941B0F0C94660F5F3FE4F337
:101F9000983ED4F3869577956795B795F795E7952D
:101FA0009F5FC1F7FE2B880F911D9695879597F936
:101FB0000895A1E21A2EAA1BBB1BFD010DC0AA1F8A
:101FC000BB1FEE1FFF1FA217B307E407F50720F0A2
:101FD000A21BB30BE40BF50B661F771F881F991F1D
:101FE0001A9469F760957095809590959B01AC0166
:101FF000BD01CF010895EE0FFF1F881F8BBF079013
:0A200000F691E02D1994F894FFCF3B
:10200A00000000005F03C902F602AC0327030503C0
:10201A00190300000000AA057D05D90553057605B8
:10202A00630554050D0A0046495245204445544566
:10203A004354454421005361666500474153204C8F
:10204A0045414B21005745495244204E4F4953457B
:10205A0021004E6F726D616C004D6F646572617420
:10206A00650048617A6172646F7573210056657202
:10207A007920556E6865616C746879003D3D3D3D17
:10208A003D3D3D20534D41525420504F4C45204E2A
:10209A004F44452044415441203D3D3D3D3D3D3D59
:1020AA0000466C616D653A20004761733A2000531F
:1020BA006F756E643A200054656D703A20002043B3
:1020CA000048756D69646974793A20002500504D9D
:1020DA00312E303A20002075672F6D33202D2000D5
:1020EA00504D322E353A2000504D31303A20003DC5
:1020FA003D3D3D3D3D3D3D3D3D3D3D3D3D3D3D3D06
:10210A003D3D3D3D3D3D3D3D3D3D3D3D3D3D3D3DF5
:04211A003D3D3D000A
:00000001FF
